{
  "contractName": "UserContract",
  "abi": [
    {
      "anonymous": false,
      "inputs": [
        {
          "indexed": false,
          "internalType": "uint256",
          "name": "userId",
          "type": "uint256"
        },
        {
          "indexed": false,
          "internalType": "string",
          "name": "name",
          "type": "string"
        }
      ],
      "name": "NewUser",
      "type": "event"
    },
    {
      "constant": true,
      "inputs": [],
      "name": "previousAddress",
      "outputs": [
        {
          "internalType": "address",
          "name": "",
          "type": "address"
        }
      ],
      "payable": false,
      "stateMutability": "view",
      "type": "function"
    },
    {
      "constant": true,
      "inputs": [
        {
          "internalType": "uint256",
          "name": "",
          "type": "uint256"
        }
      ],
      "name": "users",
      "outputs": [
        {
          "internalType": "string",
          "name": "name",
          "type": "string"
        }
      ],
      "payable": false,
      "stateMutability": "view",
      "type": "function"
    },
    {
      "constant": false,
      "inputs": [],
      "name": "initialize",
      "outputs": [],
      "payable": false,
      "stateMutability": "nonpayable",
      "type": "function"
    },
    {
      "constant": false,
      "inputs": [
        {
          "internalType": "string",
          "name": "_name",
          "type": "string"
        }
      ],
      "name": "createUser",
      "outputs": [],
      "payable": false,
      "stateMutability": "nonpayable",
      "type": "function"
    },
    {
      "constant": true,
      "inputs": [
        {
          "internalType": "uint256",
          "name": "_id",
          "type": "uint256"
        }
      ],
      "name": "readUser",
      "outputs": [
        {
          "internalType": "string",
          "name": "",
          "type": "string"
        }
      ],
      "payable": false,
      "stateMutability": "view",
      "type": "function"
    },
    {
      "constant": false,
      "inputs": [
        {
          "internalType": "uint256",
          "name": "_id",
          "type": "uint256"
        },
        {
          "internalType": "string",
          "name": "_name",
          "type": "string"
        }
      ],
      "name": "updateUser",
      "outputs": [],
      "payable": false,
      "stateMutability": "nonpayable",
      "type": "function"
    },
    {
      "constant": false,
      "inputs": [
        {
          "internalType": "uint256",
          "name": "_id",
          "type": "uint256"
        }
      ],
      "name": "removeUser",
      "outputs": [],
      "payable": false,
      "stateMutability": "nonpayable",
      "type": "function"
    }
  ],
  "bytecode": "0x608060405234801561001057600080fd5b50610d53806100206000396000f3fe608060405234801561001057600080fd5b506004361061007d5760003560e01c8063507ffba51161005b578063507ffba5146101fe5780638129fc1c146102b9578063c1393f9e146102c3578063d85340e71461030d5761007d565b80630d70e5d01461008257806311dc470314610129578063365b98b214610157575b600080fd5b6100ae6004803603602081101561009857600080fd5b81019080803590602001909291905050506103d2565b6040518080602001828103825283818151815260200191508051906020019080838360005b838110156100ee5780820151818401526020810190506100d3565b50505050905090810190601f16801561011b5780820380516001836020036101000a031916815260200191505b509250505060405180910390f35b6101556004803603602081101561013f57600080fd5b810190808035906020019092919050505061048e565b005b6101836004803603602081101561016d57600080fd5b810190808035906020019092919050505061055e565b6040518080602001828103825283818151815260200191508051906020019080838360005b838110156101c35780820151818401526020810190506101a8565b50505050905090810190601f1680156101f05780820380516001836020036101000a031916815260200191505b509250505060405180910390f35b6102b76004803603602081101561021457600080fd5b810190808035906020019064010000000081111561023157600080fd5b82018360208201111561024357600080fd5b8035906020019184600183028401116401000000008311171561026557600080fd5b91908080601f016020809104026020016040519081016040528093929190818152602001838380828437600081840152601f19601f82011690508083019250505050505050919291929050505061061d565b005b6102c161082d565b005b6102cb61096d565b604051808273ffffffffffffffffffffffffffffffffffffffff1673ffffffffffffffffffffffffffffffffffffffff16815260200191505060405180910390f35b6103d06004803603604081101561032357600080fd5b81019080803590602001909291908035906020019064010000000081111561034a57600080fd5b82018360208201111561035c57600080fd5b8035906020019184600183028401116401000000008311171561037e57600080fd5b91908080601f016020809104026020016040519081016040528093929190818152602001838380828437600081840152601f19601f820116905080830192505050505050509192919290505050610993565b005b6060603382815481106103e157fe5b906000526020600020016000018054600181600116156101000203166002900480601f0160208091040260200160405190810160405280929190818152602001828054600181600116156101000203166002900480156104825780601f1061045757610100808354040283529160200191610482565b820191906000526020600020905b81548152906001019060200180831161046557829003601f168201915b50505050509050919050565b600060356033838154811061049f57fe5b9060005260206000200160000160405180828054600181600116156101000203166002900480156105075780601f106104e5576101008083540402835291820191610507565b820191906000526020600020905b8154815290600101906020018083116104f3575b5050915050908152602001604051809103902060006101000a81548160ff0219169083151502179055506033818154811061053e57fe5b90600052602060002001600080820160006105599190610b83565b505050565b6033818154811061056b57fe5b90600052602060002001600091509050806000018054600181600116156101000203166002900480601f0160208091040260200160405190810160405280929190818152602001828054600181600116156101000203166002900480156106135780601f106105e857610100808354040283529160200191610613565b820191906000526020600020905b8154815290600101906020018083116105f657829003601f168201915b5050505050905081565b6035816040518082805190602001908083835b602083106106535780518252602082019150602081019050602083039250610630565b6001836020036101000a038019825116818451168082178552505050505050905001915050908152602001604051809103902060009054906101000a900460ff161561069e57600080fd5b603360405180602001604052808381525090806001815401808255809150509060018203906000526020600020016000909192909190915060008201518160000190805190602001906106f2929190610bcb565b50505050600060016033805490500390507f3a52155893b2ec6509fcf7e2ecd1f6ee597aa43c6dbb274922f27e856176428181836040518083815260200180602001828103825283818151815260200191508051906020019080838360005b8381101561076c578082015181840152602081019050610751565b50505050905090810190601f1680156107995780820380516001836020036101000a031916815260200191505b50935050505060405180910390a160016035836040518082805190602001908083835b602083106107df57805182526020820191506020810190506020830392506107bc565b6001836020036101000a038019825116818451168082178552505050505050905001915050908152602001604051809103902060006101000a81548160ff0219169083151502179055505050565b600060019054906101000a900460ff168061084c575061084b610b6c565b5b8061086357506000809054906101000a900460ff16155b6108b8576040517f08c379a000000000000000000000000000000000000000000000000000000000815260040180806020018281038252602e815260200180610cf1602e913960400191505060405180910390fd5b60008060019054906101000a900460ff161590508015610908576001600060016101000a81548160ff02191690831515021790555060016000806101000a81548160ff0219169083151502179055505b33603460006101000a81548173ffffffffffffffffffffffffffffffffffffffff021916908373ffffffffffffffffffffffffffffffffffffffff160217905550801561096a5760008060016101000a81548160ff0219169083151502179055505b50565b603460009054906101000a900473ffffffffffffffffffffffffffffffffffffffff1681565b6035816040518082805190602001908083835b602083106109c957805182526020820191506020810190506020830392506109a6565b6001836020036101000a038019825116818451168082178552505050505050905001915050908152602001604051809103902060009054906101000a900460ff1615610a1457600080fd5b6000603560338481548110610a2557fe5b906000526020600020016000016040518082805460018160011615610100020316600290048015610a8d5780601f10610a6b576101008083540402835291820191610a8d565b820191906000526020600020905b815481529060010190602001808311610a79575b5050915050908152602001604051809103902060006101000a81548160ff0219169083151502179055508060338381548110610ac557fe5b906000526020600020016000019080519060200190610ae5929190610c4b565b5060016035826040518082805190602001908083835b60208310610b1e5780518252602082019150602081019050602083039250610afb565b6001836020036101000a038019825116818451168082178552505050505050905001915050908152602001604051809103902060006101000a81548160ff0219169083151502179055505050565b6000803090506000813b9050600081149250505090565b50805460018160011615610100020316600290046000825580601f10610ba95750610bc8565b601f016020900490600052602060002090810190610bc79190610ccb565b5b50565b828054600181600116156101000203166002900490600052602060002090601f016020900481019282601f10610c0c57805160ff1916838001178555610c3a565b82800160010185558215610c3a579182015b82811115610c39578251825591602001919060010190610c1e565b5b509050610c479190610ccb565b5090565b828054600181600116156101000203166002900490600052602060002090601f016020900481019282601f10610c8c57805160ff1916838001178555610cba565b82800160010185558215610cba579182015b82811115610cb9578251825591602001919060010190610c9e565b5b509050610cc79190610ccb565b5090565b610ced91905b80821115610ce9576000816000905550600101610cd1565b5090565b9056fe436f6e747261637420696e7374616e63652068617320616c7265616479206265656e20696e697469616c697a6564a265627a7a72315820891c52249135d6d1fb1689051af66a5fbb6a77201ad8417d2127cac3f4cc7d4264736f6c63430005100032",
  "source": "// SPDX-License-Identifier:\tMIT\r\npragma solidity >=0.5.0;\r\nimport \"./Initializable.sol\";\r\ncontract UserContract is Initializable{\r\n  \r\n  event NewUser(uint userId, string name);\r\n  \r\n  struct User{\r\n    string name;\r\n  }\r\n  User[] public users;\r\n  address public previousAddress;\r\n  mapping(string => bool) _userExists;\r\n\r\n  function initialize() public initializer{\r\n    previousAddress = msg.sender;\r\n\r\n  }\r\n  \r\n  // to create a new user\r\n  function createUser(string memory _name) public{\r\n    // requires unique name in order to execute the following code\r\n    require(!_userExists[_name]);\r\n    // user will be added to the users array\r\n    users.push(User(_name));\r\n    // user.push(); doesnot return int anymore\r\n    uint id = users.length - 1;\r\n    emit NewUser(id, _name);\r\n    // gives value true to name in the mapping\r\n    _userExists[_name] = true;\r\n  }\r\n  \r\n  // to read the information of the user by giving the id\r\n  function readUser(uint _id) view public returns(string memory){\r\n    return users[_id].name;    \r\n  }\r\n  \r\n  // to update the name of the user\r\n  function updateUser(uint _id, string memory _name) public{\r\n      // requires unique name in order to execute the following code\r\n    require(!_userExists[_name]);\r\n    _userExists[users[_id].name] = false;\r\n    users[_id].name = _name;\r\n    _userExists[_name] = true;\r\n  }\r\n  \r\n  // to remove the user\r\n  function removeUser(uint _id) public{\r\n   _userExists[users[_id].name] = false;\r\n   delete users[_id];\r\n  }\r\n\r\n  \r\n      \r\n}",
  "sourcePath": "C:/Users/phili/code/truffle/contracts/UserContract.sol",
  "compiler": {
    "name": "solc",
    "version": "0.5.16+commit.9c3226ce.Emscripten.clang"
  },
  "schemaVersion": "3.2.2",
  "updatedAt": "2021-06-23T00:30:46.707Z",
  "networkType": "ethereum",
  "devdoc": {
    "methods": {}
  },
  "userdoc": {
    "methods": {}
  }
}