{
  "contractName": "UserContractV2",
  "abi": [
    {
      "anonymous": false,
      "inputs": [
        {
          "indexed": false,
          "internalType": "uint256",
          "name": "userId",
          "type": "uint256"
        },
        {
          "indexed": false,
          "internalType": "string",
          "name": "name",
          "type": "string"
        }
      ],
      "name": "NewUser",
      "type": "event"
    },
    {
      "constant": true,
      "inputs": [],
      "name": "previousAddress",
      "outputs": [
        {
          "internalType": "address",
          "name": "",
          "type": "address"
        }
      ],
      "payable": false,
      "stateMutability": "view",
      "type": "function"
    },
    {
      "constant": true,
      "inputs": [
        {
          "internalType": "uint256",
          "name": "",
          "type": "uint256"
        }
      ],
      "name": "users",
      "outputs": [
        {
          "internalType": "string",
          "name": "name",
          "type": "string"
        }
      ],
      "payable": false,
      "stateMutability": "view",
      "type": "function"
    },
    {
      "constant": false,
      "inputs": [],
      "name": "initialize",
      "outputs": [],
      "payable": false,
      "stateMutability": "nonpayable",
      "type": "function"
    },
    {
      "constant": false,
      "inputs": [
        {
          "internalType": "string",
          "name": "_name",
          "type": "string"
        }
      ],
      "name": "createUser",
      "outputs": [],
      "payable": false,
      "stateMutability": "nonpayable",
      "type": "function"
    },
    {
      "constant": true,
      "inputs": [
        {
          "internalType": "uint256",
          "name": "_id",
          "type": "uint256"
        }
      ],
      "name": "readUser",
      "outputs": [
        {
          "internalType": "string",
          "name": "",
          "type": "string"
        }
      ],
      "payable": false,
      "stateMutability": "view",
      "type": "function"
    },
    {
      "constant": false,
      "inputs": [
        {
          "internalType": "uint256",
          "name": "_id",
          "type": "uint256"
        },
        {
          "internalType": "string",
          "name": "_name",
          "type": "string"
        }
      ],
      "name": "updateUser",
      "outputs": [],
      "payable": false,
      "stateMutability": "nonpayable",
      "type": "function"
    },
    {
      "constant": false,
      "inputs": [
        {
          "internalType": "uint256",
          "name": "_id",
          "type": "uint256"
        }
      ],
      "name": "removeUser",
      "outputs": [],
      "payable": false,
      "stateMutability": "nonpayable",
      "type": "function"
    },
    {
      "constant": false,
      "inputs": [
        {
          "internalType": "address",
          "name": "_newAddress",
          "type": "address"
        }
      ],
      "name": "changePreviousAddress",
      "outputs": [],
      "payable": false,
      "stateMutability": "nonpayable",
      "type": "function"
    }
  ],
  "bytecode": "0x608060405234801561001057600080fd5b50610eab806100206000396000f3fe608060405234801561001057600080fd5b50600436106100885760003560e01c8063507ffba51161005b578063507ffba51461024d5780638129fc1c14610308578063c1393f9e14610312578063d85340e71461035c57610088565b80630d70e5d01461008d57806311dc47031461013457806313c55f2c14610162578063365b98b2146101a6575b600080fd5b6100b9600480360360208110156100a357600080fd5b8101908080359060200190929190505050610421565b6040518080602001828103825283818151815260200191508051906020019080838360005b838110156100f95780820151818401526020810190506100de565b50505050905090810190601f1680156101265780820380516001836020036101000a031916815260200191505b509250505060405180910390f35b6101606004803603602081101561014a57600080fd5b81019080803590602001909291905050506104dd565b005b6101a46004803603602081101561017857600080fd5b81019080803573ffffffffffffffffffffffffffffffffffffffff1690602001909291905050506105ad565b005b6101d2600480360360208110156101bc57600080fd5b81019080803590602001909291905050506106b6565b6040518080602001828103825283818151815260200191508051906020019080838360005b838110156102125780820151818401526020810190506101f7565b50505050905090810190601f16801561023f5780820380516001836020036101000a031916815260200191505b509250505060405180910390f35b6103066004803603602081101561026357600080fd5b810190808035906020019064010000000081111561028057600080fd5b82018360208201111561029257600080fd5b803590602001918460018302840111640100000000831117156102b457600080fd5b91908080601f016020809104026020016040519081016040528093929190818152602001838380828437600081840152601f19601f820116905080830192505050505050509192919290505050610775565b005b610310610985565b005b61031a610ac5565b604051808273ffffffffffffffffffffffffffffffffffffffff1673ffffffffffffffffffffffffffffffffffffffff16815260200191505060405180910390f35b61041f6004803603604081101561037257600080fd5b81019080803590602001909291908035906020019064010000000081111561039957600080fd5b8201836020820111156103ab57600080fd5b803590602001918460018302840111640100000000831117156103cd57600080fd5b91908080601f016020809104026020016040519081016040528093929190818152602001838380828437600081840152601f19601f820116905080830192505050505050509192919290505050610aeb565b005b60606033828154811061043057fe5b906000526020600020016000018054600181600116156101000203166002900480601f0160208091040260200160405190810160405280929190818152602001828054600181600116156101000203166002900480156104d15780601f106104a6576101008083540402835291602001916104d1565b820191906000526020600020905b8154815290600101906020018083116104b457829003601f168201915b50505050509050919050565b60006035603383815481106104ee57fe5b9060005260206000200160000160405180828054600181600116156101000203166002900480156105565780601f10610534576101008083540402835291820191610556565b820191906000526020600020905b815481529060010190602001808311610542575b5050915050908152602001604051809103902060006101000a81548160ff0219169083151502179055506033818154811061058d57fe5b90600052602060002001600080820160006105a89190610cdb565b505050565b603460009054906101000a900473ffffffffffffffffffffffffffffffffffffffff168073ffffffffffffffffffffffffffffffffffffffff163373ffffffffffffffffffffffffffffffffffffffff1614610671576040517f08c379a00000000000000000000000000000000000000000000000000000000081526004018080602001828103825260168152602001807f53656e646572206e6f7420617574686f72697a65642e0000000000000000000081525060200191505060405180910390fd5b81603460006101000a81548173ffffffffffffffffffffffffffffffffffffffff021916908373ffffffffffffffffffffffffffffffffffffffff1602179055505050565b603381815481106106c357fe5b90600052602060002001600091509050806000018054600181600116156101000203166002900480601f01602080910402602001604051908101604052809291908181526020018280546001816001161561010002031660029004801561076b5780601f106107405761010080835404028352916020019161076b565b820191906000526020600020905b81548152906001019060200180831161074e57829003601f168201915b5050505050905081565b6035816040518082805190602001908083835b602083106107ab5780518252602082019150602081019050602083039250610788565b6001836020036101000a038019825116818451168082178552505050505050905001915050908152602001604051809103902060009054906101000a900460ff16156107f657600080fd5b6033604051806020016040528083815250908060018154018082558091505090600182039060005260206000200160009091929091909150600082015181600001908051906020019061084a929190610d23565b50505050600060016033805490500390507f3a52155893b2ec6509fcf7e2ecd1f6ee597aa43c6dbb274922f27e856176428181836040518083815260200180602001828103825283818151815260200191508051906020019080838360005b838110156108c45780820151818401526020810190506108a9565b50505050905090810190601f1680156108f15780820380516001836020036101000a031916815260200191505b50935050505060405180910390a160016035836040518082805190602001908083835b602083106109375780518252602082019150602081019050602083039250610914565b6001836020036101000a038019825116818451168082178552505050505050905001915050908152602001604051809103902060006101000a81548160ff0219169083151502179055505050565b600060019054906101000a900460ff16806109a457506109a3610cc4565b5b806109bb57506000809054906101000a900460ff16155b610a10576040517f08c379a000000000000000000000000000000000000000000000000000000000815260040180806020018281038252602e815260200180610e49602e913960400191505060405180910390fd5b60008060019054906101000a900460ff161590508015610a60576001600060016101000a81548160ff02191690831515021790555060016000806101000a81548160ff0219169083151502179055505b33603460006101000a81548173ffffffffffffffffffffffffffffffffffffffff021916908373ffffffffffffffffffffffffffffffffffffffff1602179055508015610ac25760008060016101000a81548160ff0219169083151502179055505b50565b603460009054906101000a900473ffffffffffffffffffffffffffffffffffffffff1681565b6035816040518082805190602001908083835b60208310610b215780518252602082019150602081019050602083039250610afe565b6001836020036101000a038019825116818451168082178552505050505050905001915050908152602001604051809103902060009054906101000a900460ff1615610b6c57600080fd5b6000603560338481548110610b7d57fe5b906000526020600020016000016040518082805460018160011615610100020316600290048015610be55780601f10610bc3576101008083540402835291820191610be5565b820191906000526020600020905b815481529060010190602001808311610bd1575b5050915050908152602001604051809103902060006101000a81548160ff0219169083151502179055508060338381548110610c1d57fe5b906000526020600020016000019080519060200190610c3d929190610da3565b5060016035826040518082805190602001908083835b60208310610c765780518252602082019150602081019050602083039250610c53565b6001836020036101000a038019825116818451168082178552505050505050905001915050908152602001604051809103902060006101000a81548160ff0219169083151502179055505050565b6000803090506000813b9050600081149250505090565b50805460018160011615610100020316600290046000825580601f10610d015750610d20565b601f016020900490600052602060002090810190610d1f9190610e23565b5b50565b828054600181600116156101000203166002900490600052602060002090601f016020900481019282601f10610d6457805160ff1916838001178555610d92565b82800160010185558215610d92579182015b82811115610d91578251825591602001919060010190610d76565b5b509050610d9f9190610e23565b5090565b828054600181600116156101000203166002900490600052602060002090601f016020900481019282601f10610de457805160ff1916838001178555610e12565b82800160010185558215610e12579182015b82811115610e11578251825591602001919060010190610df6565b5b509050610e1f9190610e23565b5090565b610e4591905b80821115610e41576000816000905550600101610e29565b5090565b9056fe436f6e747261637420696e7374616e63652068617320616c7265616479206265656e20696e697469616c697a6564a265627a7a72315820985de2aade0a6803094afe627d2746bc21d8e83a09eefa327f306247fd5101c964736f6c63430005100032",
  "source": "// SPDX-License-Identifier:\tMIT\r\npragma solidity >=0.5.0;\r\nimport \"./Initializable.sol\";\r\n\r\n/// @title A Database for users\r\n/// @author Philip Bouwens\r\n/// @notice You can use this contract for a basic database\r\n/// @dev Contract includes modifier, selfdestruct and natspec comments\r\ncontract UserContractV2 is Initializable{\r\n  \r\n  event NewUser(uint userId, string name);\r\n  \r\n  struct User{\r\n    string name;\r\n  }\r\n\r\n  User[] public users;\r\n  address public previousAddress;\r\n  mapping(string => bool) _userExists;\r\n\r\n  function initialize() public initializer{\r\n    previousAddress = msg.sender;\r\n  }\r\n\r\n  // function destroy() public{\r\n  //   selfdestruct(msg.sender);\r\n  // }\r\n  \r\n  /// @notice Create a new user\r\n  /// @dev requires unique name in order to add to the users array and mapp user exists\r\n  /// @param _name The name of the user\r\n  function createUser(string memory _name) public{\r\n    require(!_userExists[_name]);\r\n    users.push(User(_name));\r\n    uint id = users.length - 1;\r\n    emit NewUser(id, _name);\r\n    _userExists[_name] = true;\r\n  }\r\n  \r\n  /// @notice Returns the name of the user by id\r\n  /// @dev Returns only a the name\r\n  /// @param _id The id of the user\r\n  function readUser(uint _id) view public returns(string memory){\r\n    return users[_id].name;    \r\n  }\r\n  \r\n  /// @notice Updates the name of the user by id\r\n  /// @dev Updates only a the name of the user, requires an unique name\r\n  /// @param _id The id of the user\r\n  /// @param _name The name of the use\r\n  function updateUser(uint _id, string memory _name) public{\r\n    require(!_userExists[_name]);\r\n    _userExists[users[_id].name] = false;\r\n    users[_id].name = _name;\r\n    _userExists[_name] = true;\r\n  }\r\n  \r\n  /// @notice Removes the name of the user by id\r\n  /// @dev Removes only a the name\r\n  /// @param _id The id of the user\r\n  function removeUser(uint _id) public{\r\n   _userExists[users[_id].name] = false;\r\n   delete users[_id];\r\n  }\r\n\r\n  modifier onlyBy(address _account) {\r\n      require(msg.sender == _account, \"Sender not authorized.\");\r\n      _;\r\n  }\r\n\r\n  function changePreviousAddress(address _newAddress) public onlyBy(previousAddress) {\r\n        previousAddress = _newAddress;\r\n  }\r\n      \r\n}",
  "sourcePath": "C:/Users/phili/code/truffle/contracts/UserContractV2.sol",
  "compiler": {
    "name": "solc",
    "version": "0.5.16+commit.9c3226ce.Emscripten.clang"
  },
  "schemaVersion": "3.2.2",
  "updatedAt": "2021-06-23T00:30:46.710Z",
  "networkType": "ethereum",
  "devdoc": {
    "author": "Philip Bouwens",
    "details": "Contract includes modifier, selfdestruct and natspec comments",
    "methods": {
      "createUser(string)": {
        "details": "requires unique name in order to add to the users array and mapp user exists",
        "params": {
          "_name": "The name of the user"
        }
      },
      "readUser(uint256)": {
        "details": "Returns only a the name",
        "params": {
          "_id": "The id of the user"
        }
      },
      "removeUser(uint256)": {
        "details": "Removes only a the name",
        "params": {
          "_id": "The id of the user"
        }
      },
      "updateUser(uint256,string)": {
        "details": "Updates only a the name of the user, requires an unique name",
        "params": {
          "_id": "The id of the user",
          "_name": "The name of the use"
        }
      }
    },
    "title": "A Database for users"
  },
  "userdoc": {
    "methods": {
      "createUser(string)": {
        "notice": "Create a new user"
      },
      "readUser(uint256)": {
        "notice": "Returns the name of the user by id"
      },
      "removeUser(uint256)": {
        "notice": "Removes the name of the user by id"
      },
      "updateUser(uint256,string)": {
        "notice": "Updates the name of the user by id"
      }
    },
    "notice": "You can use this contract for a basic database"
  }
}