{
  "contractName": "UserContract",
  "abi": [
    {
      "constant": true,
      "inputs": [
        {
          "name": "",
          "type": "uint256"
        }
      ],
      "name": "users",
      "outputs": [
        {
          "name": "name",
          "type": "string"
        }
      ],
      "payable": false,
      "stateMutability": "view",
      "type": "function",
      "signature": "0x365b98b2"
    },
    {
      "anonymous": false,
      "inputs": [
        {
          "indexed": false,
          "name": "userId",
          "type": "uint256"
        },
        {
          "indexed": false,
          "name": "name",
          "type": "string"
        }
      ],
      "name": "NewUser",
      "type": "event",
      "signature": "0x3a52155893b2ec6509fcf7e2ecd1f6ee597aa43c6dbb274922f27e8561764281"
    },
    {
      "constant": false,
      "inputs": [
        {
          "name": "_name",
          "type": "string"
        }
      ],
      "name": "createUser",
      "outputs": [],
      "payable": false,
      "stateMutability": "nonpayable",
      "type": "function",
      "signature": "0x507ffba5"
    },
    {
      "constant": true,
      "inputs": [
        {
          "name": "_id",
          "type": "uint256"
        }
      ],
      "name": "readUser",
      "outputs": [
        {
          "name": "",
          "type": "string"
        }
      ],
      "payable": false,
      "stateMutability": "view",
      "type": "function",
      "signature": "0x0d70e5d0"
    },
    {
      "constant": false,
      "inputs": [
        {
          "name": "_id",
          "type": "uint256"
        },
        {
          "name": "_name",
          "type": "string"
        }
      ],
      "name": "updateUser",
      "outputs": [],
      "payable": false,
      "stateMutability": "nonpayable",
      "type": "function",
      "signature": "0xd85340e7"
    },
    {
      "constant": false,
      "inputs": [
        {
          "name": "_id",
          "type": "uint256"
        }
      ],
      "name": "removeUser",
      "outputs": [],
      "payable": false,
      "stateMutability": "nonpayable",
      "type": "function",
      "signature": "0x11dc4703"
    }
  ],
  "bytecode": "0x608060405234801561001057600080fd5b50610b93806100206000396000f3fe60806040526004361061006d576000357c0100000000000000000000000000000000000000000000000000000000900463ffffffff1680630d70e5d01461007257806311dc470314610126578063365b98b214610161578063507ffba514610215578063d85340e7146102dd575b600080fd5b34801561007e57600080fd5b506100ab6004803603602081101561009557600080fd5b81019080803590602001909291905050506103af565b6040518080602001828103825283818151815260200191508051906020019080838360005b838110156100eb5780820151818401526020810190506100d0565b50505050905090810190601f1680156101185780820380516001836020036101000a031916815260200191505b509250505060405180910390f35b34801561013257600080fd5b5061015f6004803603602081101561014957600080fd5b810190808035906020019092919050505061046d565b005b34801561016d57600080fd5b5061019a6004803603602081101561018457600080fd5b8101908080359060200190929190505050610541565b6040518080602001828103825283818151815260200191508051906020019080838360005b838110156101da5780820151818401526020810190506101bf565b50505050905090810190601f1680156102075780820380516001836020036101000a031916815260200191505b509250505060405180910390f35b34801561022157600080fd5b506102db6004803603602081101561023857600080fd5b810190808035906020019064010000000081111561025557600080fd5b82018360208201111561026757600080fd5b8035906020019184600183028401116401000000008311171561028957600080fd5b91908080601f016020809104026020016040519081016040528093929190818152602001838380828437600081840152601f19601f820116905080830192505050505050509192919290505050610602565b005b3480156102e957600080fd5b506103ad6004803603604081101561030057600080fd5b81019080803590602001909291908035906020019064010000000081111561032757600080fd5b82018360208201111561033957600080fd5b8035906020019184600183028401116401000000008311171561035b57600080fd5b91908080601f016020809104026020016040519081016040528093929190818152602001838380828437600081840152601f19601f820116905080830192505050505050509192919290505050610818565b005b60606000828154811015156103c057fe5b906000526020600020016000018054600181600116156101000203166002900480601f0160208091040260200160405190810160405280929190818152602001828054600181600116156101000203166002900480156104615780601f1061043657610100808354040283529160200191610461565b820191906000526020600020905b81548152906001019060200180831161044457829003601f168201915b50505050509050919050565b6000600160008381548110151561048057fe5b9060005260206000200160000160405180828054600181600116156101000203166002900480156104e85780601f106104c65761010080835404028352918201916104e8565b820191906000526020600020905b8154815290600101906020018083116104d4575b5050915050908152602001604051809103902060006101000a81548160ff02191690831515021790555060008181548110151561052157fe5b906000526020600020016000808201600061053c91906109fa565b505050565b60008181548110151561055057fe5b90600052602060002001600091509050806000018054600181600116156101000203166002900480601f0160208091040260200160405190810160405280929190818152602001828054600181600116156101000203166002900480156105f85780601f106105cd576101008083540402835291602001916105f8565b820191906000526020600020905b8154815290600101906020018083116105db57829003601f168201915b5050505050905081565b6001816040518082805190602001908083835b60208310151561063a5780518252602082019150602081019050602083039250610615565b6001836020036101000a038019825116818451168082178552505050505050905001915050908152602001604051809103902060009054906101000a900460ff1615151561068757600080fd5b60006020604051908101604052808381525090806001815401808255809150509060018203906000526020600020016000909192909190915060008201518160000190805190602001906106dc929190610a42565b50505050600060016000805490500390507f3a52155893b2ec6509fcf7e2ecd1f6ee597aa43c6dbb274922f27e856176428181836040518083815260200180602001828103825283818151815260200191508051906020019080838360005b8381101561075657808201518184015260208101905061073b565b50505050905090810190601f1680156107835780820380516001836020036101000a031916815260200191505b50935050505060405180910390a1600180836040518082805190602001908083835b6020831015156107ca57805182526020820191506020810190506020830392506107a5565b6001836020036101000a038019825116818451168082178552505050505050905001915050908152602001604051809103902060006101000a81548160ff0219169083151502179055505050565b6001816040518082805190602001908083835b602083101515610850578051825260208201915060208101905060208303925061082b565b6001836020036101000a038019825116818451168082178552505050505050905001915050908152602001604051809103902060009054906101000a900460ff1615151561089d57600080fd5b600060016000848154811015156108b057fe5b9060005260206000200160000160405180828054600181600116156101000203166002900480156109185780601f106108f6576101008083540402835291820191610918565b820191906000526020600020905b815481529060010190602001808311610904575b5050915050908152602001604051809103902060006101000a81548160ff0219169083151502179055508060008381548110151561095257fe5b906000526020600020016000019080519060200190610972929190610ac2565b50600180826040518082805190602001908083835b6020831015156109ac5780518252602082019150602081019050602083039250610987565b6001836020036101000a038019825116818451168082178552505050505050905001915050908152602001604051809103902060006101000a81548160ff0219169083151502179055505050565b50805460018160011615610100020316600290046000825580601f10610a205750610a3f565b601f016020900490600052602060002090810190610a3e9190610b42565b5b50565b828054600181600116156101000203166002900490600052602060002090601f016020900481019282601f10610a8357805160ff1916838001178555610ab1565b82800160010185558215610ab1579182015b82811115610ab0578251825591602001919060010190610a95565b5b509050610abe9190610b42565b5090565b828054600181600116156101000203166002900490600052602060002090601f016020900481019282601f10610b0357805160ff1916838001178555610b31565b82800160010185558215610b31579182015b82811115610b30578251825591602001919060010190610b15565b5b509050610b3e9190610b42565b5090565b610b6491905b80821115610b60576000816000905550600101610b48565b5090565b9056fea165627a7a7230582016785ea2f28fa650d019e1c7b4e9389f192c7592386f6058d5cb26ad86c3208b0029",
  "source": "// SPDX-License-Identifier:\tAFL-3.0\r\npragma solidity >=0.5.0;\r\n\r\ncontract UserContract{\r\n  \r\n  event NewUser(uint userId, string name);\r\n  \r\n  struct User{\r\n    string name;\r\n  }\r\n  User[] public users;\r\n  mapping(string => bool) _userExists;\r\n  \r\n  // to create a new user\r\n  function createUser(string memory _name) public{\r\n    // requires unique name in order to execute the following code\r\n    require(!_userExists[_name]);\r\n    // user will be added to the users array\r\n    users.push(User(_name));\r\n    // user.push(); doesnot return int anymore\r\n    uint id = users.length - 1;\r\n    emit NewUser(id, _name);\r\n    // gives value true to name in the mapping\r\n    _userExists[_name] = true;\r\n  }\r\n  \r\n  // to read the information of the user by giving the id\r\n  function readUser(uint _id) view public returns(string memory){\r\n    return users[_id].name;    \r\n  }\r\n  \r\n  // to update the name of the user\r\n  function updateUser(uint _id, string memory _name) public{\r\n      // requires unique name in order to execute the following code\r\n    require(!_userExists[_name]);\r\n    _userExists[users[_id].name] = false;\r\n    users[_id].name = _name;\r\n    _userExists[_name] = true;\r\n  }\r\n  \r\n  // to remove the user\r\n  function removeUser(uint _id) public{\r\n   _userExists[users[_id].name] = false;\r\n   delete users[_id];\r\n  }\r\n      \r\n}",
  "sourcePath": "C:/Users/phili/code/truffle/contracts/UserContract.sol",
  "compiler": {
    "name": "solc",
    "version": "0.5.0+commit.1d4f565a.Emscripten.clang"
  },
  "schemaVersion": "3.0.2",
  "updatedAt": "2021-06-15T23:22:13.647Z",
  "devdoc": {
    "methods": {}
  },
  "userdoc": {
    "methods": {}
  }
}